{
  "contractName": "USElection",
  "abi": [
    {
      "anonymous": false,
      "inputs": [
        {
          "indexed": false,
          "internalType": "uint256",
          "name": "winner",
          "type": "uint256"
        }
      ],
      "name": "LogElectionEnded",
      "type": "event"
    },
    {
      "anonymous": false,
      "inputs": [
        {
          "indexed": false,
          "internalType": "uint8",
          "name": "winner",
          "type": "uint8"
        },
        {
          "indexed": false,
          "internalType": "uint8",
          "name": "stateSeats",
          "type": "uint8"
        },
        {
          "indexed": false,
          "internalType": "string",
          "name": "state",
          "type": "string"
        }
      ],
      "name": "LogStateResult",
      "type": "event"
    },
    {
      "inputs": [],
      "name": "BIDEN",
      "outputs": [
        {
          "internalType": "uint8",
          "name": "",
          "type": "uint8"
        }
      ],
      "stateMutability": "view",
      "type": "function"
    },
    {
      "inputs": [],
      "name": "TRUMP",
      "outputs": [
        {
          "internalType": "uint8",
          "name": "",
          "type": "uint8"
        }
      ],
      "stateMutability": "view",
      "type": "function"
    },
    {
      "inputs": [],
      "name": "electionEnded",
      "outputs": [
        {
          "internalType": "bool",
          "name": "",
          "type": "bool"
        }
      ],
      "stateMutability": "view",
      "type": "function"
    },
    {
      "inputs": [],
      "name": "owner",
      "outputs": [
        {
          "internalType": "address",
          "name": "",
          "type": "address"
        }
      ],
      "stateMutability": "view",
      "type": "function"
    },
    {
      "inputs": [
        {
          "internalType": "string",
          "name": "",
          "type": "string"
        }
      ],
      "name": "resultsSubmitted",
      "outputs": [
        {
          "internalType": "bool",
          "name": "",
          "type": "bool"
        }
      ],
      "stateMutability": "view",
      "type": "function"
    },
    {
      "inputs": [
        {
          "internalType": "uint8",
          "name": "",
          "type": "uint8"
        }
      ],
      "name": "seats",
      "outputs": [
        {
          "internalType": "uint8",
          "name": "",
          "type": "uint8"
        }
      ],
      "stateMutability": "view",
      "type": "function"
    },
    {
      "inputs": [
        {
          "components": [
            {
              "internalType": "string",
              "name": "name",
              "type": "string"
            },
            {
              "internalType": "uint256",
              "name": "votesBiden",
              "type": "uint256"
            },
            {
              "internalType": "uint256",
              "name": "votesTrump",
              "type": "uint256"
            },
            {
              "internalType": "uint8",
              "name": "stateSeats",
              "type": "uint8"
            }
          ],
          "internalType": "struct USElection.StateResult",
          "name": "result",
          "type": "tuple"
        }
      ],
      "name": "submitStateResult",
      "outputs": [],
      "stateMutability": "nonpayable",
      "type": "function"
    },
    {
      "inputs": [],
      "name": "currentLeader",
      "outputs": [
        {
          "internalType": "uint8",
          "name": "",
          "type": "uint8"
        }
      ],
      "stateMutability": "view",
      "type": "function"
    },
    {
      "inputs": [],
      "name": "endElection",
      "outputs": [],
      "stateMutability": "nonpayable",
      "type": "function"
    }
  ],
  "bytecode": "0x608060405234801561001057600080fd5b50336000806101000a81548173ffffffffffffffffffffffffffffffffffffffff021916908373ffffffffffffffffffffffffffffffffffffffff160217905550610da8806100606000396000f3fe608060405234801561001057600080fd5b50600436106100935760003560e01c8063713d87c511610066578063713d87c51461010e5780638da5cb5b1461013e578063ac4bd53a1461015c578063c94ca9e31461017a578063e494a8831461019857610093565b80632d78d8e51461009857806337ad98ec146100b657806359f78468146100e657806369b36bd4146100f0575b600080fd5b6100a06101b4565b6040516100ad9190610bad565b60405180910390f35b6100d060048036038101906100cb9190610864565b6101b9565b6040516100dd9190610af7565b60405180910390f35b6100ee6101ef565b005b6100f861035b565b6040516101059190610bad565b60405180910390f35b610128600480360381019061012391906108e6565b610360565b6040516101359190610bad565b60405180910390f35b610146610380565b6040516101539190610adc565b60405180910390f35b6101646103a4565b6040516101719190610bad565b60405180910390f35b610182610478565b60405161018f9190610af7565b60405180910390f35b6101b260048036038101906101ad91906108a5565b61048b565b005b600281565b6002818051602081018201805184825260208301602085012081835280955050505050506000915054906101000a900460ff1681565b3373ffffffffffffffffffffffffffffffffffffffff1660008054906101000a900473ffffffffffffffffffffffffffffffffffffffff1673ffffffffffffffffffffffffffffffffffffffff16146102b0576040517f08c379a00000000000000000000000000000000000000000000000000000000081526004018080602001828103825260188152602001807f4e6f7420696e766f6b656420627920746865206f776e6572000000000000000081525060200191505060405180910390fd5b600060149054906101000a900460ff1615610300576040517f08c379a00000000000000000000000000000000000000000000000000000000081526004016102f790610b12565b60405180910390fd5b6001600060146101000a81548160ff0219169083151502179055507faacb23683ec1a0e9b52f9a6264edf58ad322ac62079d65ea7363a2d400f439f46103446103a4565b6040516103519190610b92565b60405180910390a1565b600181565b60016020528060005260406000206000915054906101000a900460ff1681565b60008054906101000a900473ffffffffffffffffffffffffffffffffffffffff1681565b600060016000600260ff1660ff16815260200190815260200160002060009054906101000a900460ff1660ff1660016000600160ff1660ff16815260200190815260200160002060009054906101000a900460ff1660ff16111561040b5760019050610475565b60016000600160ff1660ff16815260200190815260200160002060009054906101000a900460ff1660ff1660016000600260ff1660ff16815260200190815260200160002060009054906101000a900460ff1660ff1611156104705760029050610475565b600090505b90565b600060149054906101000a900460ff1681565b3373ffffffffffffffffffffffffffffffffffffffff1660008054906101000a900473ffffffffffffffffffffffffffffffffffffffff1673ffffffffffffffffffffffffffffffffffffffff161461054c576040517f08c379a00000000000000000000000000000000000000000000000000000000081526004018080602001828103825260188152602001807f4e6f7420696e766f6b656420627920746865206f776e6572000000000000000081525060200191505060405180910390fd5b600060149054906101000a900460ff161561059c576040517f08c379a000000000000000000000000000000000000000000000000000000000815260040161059390610b12565b60405180910390fd5b60008160600160208101906105b191906108e6565b60ff16116105f4576040517f08c379a00000000000000000000000000000000000000000000000000000000081526004016105eb90610b72565b60405180910390fd5b80604001358160200135141561063f576040517f08c379a000000000000000000000000000000000000000000000000000000000815260040161063690610b32565b60405180910390fd5b6001151560028280600001906106559190610c08565b604051610663929190610ac3565b908152602001604051809103902060009054906101000a900460ff16151514156106c2576040517f08c379a00000000000000000000000000000000000000000000000000000000081526004016106b990610b52565b60405180910390fd5b60008160400135826020013511156106dd57600190506106e2565b600290505b8160600160208101906106f591906108e6565b600160008360ff1660ff16815260200190815260200160002060008282829054906101000a900460ff160192506101000a81548160ff021916908360ff1602179055506001600283806000019061074c9190610c08565b60405161075a929190610ac3565b908152602001604051809103902060006101000a81548160ff0219169083151502179055507fa2e71fe38f1afa3762cf9d2ea7bb6a4d272a90fd6f9392f3acedd3b542046b46818360600160208101906107b491906108e6565b8480600001906107c49190610c08565b6040516107d49493929190610bc8565b60405180910390a15050565b600082601f8301126107f157600080fd5b81356108046107ff82610c90565b610c5f565b9150808252602083016020830185838301111561082057600080fd5b61082b838284610d39565b50505092915050565b60006080828403121561084657600080fd5b81905092915050565b60008135905061085e81610d5b565b92915050565b60006020828403121561087657600080fd5b600082013567ffffffffffffffff81111561089057600080fd5b61089c848285016107e0565b91505092915050565b6000602082840312156108b757600080fd5b600082013567ffffffffffffffff8111156108d157600080fd5b6108dd84828501610834565b91505092915050565b6000602082840312156108f857600080fd5b60006109068482850161084f565b91505092915050565b61091881610cdc565b82525050565b61092781610cee565b82525050565b60006109398385610cc0565b9350610946838584610d39565b61094f83610d4a565b840190509392505050565b60006109668385610cd1565b9350610973838584610d39565b82840190509392505050565b600061098c601e83610cc0565b91507f54686520656c656374696f6e2068617320656e64656420616c726561647900006000830152602082019050919050565b60006109cc601583610cc0565b91507f54686572652063616e6e6f7420626520612074696500000000000000000000006000830152602082019050919050565b6000610a0c602e83610cc0565b91507f54686520726573756c7420697320616c7265616479207375626d69747465642060008301527f666f7220746869732073746174650000000000000000000000000000000000006020830152604082019050919050565b6000610a72602083610cc0565b91507f537461746573206d7573742068617665206174206c65617374203120736561746000830152602082019050919050565b610aae81610d27565b82525050565b610abd81610d1a565b82525050565b6000610ad082848661095a565b91508190509392505050565b6000602082019050610af1600083018461090f565b92915050565b6000602082019050610b0c600083018461091e565b92915050565b60006020820190508181036000830152610b2b8161097f565b9050919050565b60006020820190508181036000830152610b4b816109bf565b9050919050565b60006020820190508181036000830152610b6b816109ff565b9050919050565b60006020820190508181036000830152610b8b81610a65565b9050919050565b6000602082019050610ba76000830184610aa5565b92915050565b6000602082019050610bc26000830184610ab4565b92915050565b6000606082019050610bdd6000830187610ab4565b610bea6020830186610ab4565b8181036040830152610bfd81848661092d565b905095945050505050565b60008083356001602003843603038112610c2157600080fd5b80840192508235915067ffffffffffffffff821115610c3f57600080fd5b602083019250600182023603831315610c5757600080fd5b509250929050565b6000604051905081810181811067ffffffffffffffff82111715610c8657610c85610d48565b5b8060405250919050565b600067ffffffffffffffff821115610cab57610caa610d48565b5b601f19601f8301169050602081019050919050565b600082825260208201905092915050565b600081905092915050565b6000610ce782610cfa565b9050919050565b60008115159050919050565b600073ffffffffffffffffffffffffffffffffffffffff82169050919050565b600060ff82169050919050565b6000610d3282610d1a565b9050919050565b82818337600083830152505050565bfe5b6000601f19601f8301169050919050565b610d6481610d1a565b8114610d6f57600080fd5b5056fea264697066735822122017bd5c5a4dfc80d28ea7e256dc8b1e032077cb6cb811811bdb940bd13bf71e7764736f6c63430007050033",
  "source": "\r\n// SPDX-License-Identifier: UNLICENSED\r\npragma solidity ^0.7.5;\r\npragma abicoder v2;\r\nimport './Ownable.sol';\r\n\r\n\r\ncontract USElection is Ownable {\r\n    uint8 public constant BIDEN = 1;\r\n    uint8 public constant TRUMP = 2;\r\n    \r\n    bool public electionEnded;\r\n    \r\n    mapping(uint8 => uint8) public seats;\r\n    mapping(string => bool) public resultsSubmitted;\r\n\tevent LogStateResult(uint8 winner, uint8 stateSeats, string state);\r\n    event LogElectionEnded(uint winner);\r\n\t\r\n    struct StateResult {\r\n        string name;\r\n        uint votesBiden;\r\n        uint votesTrump;\r\n        uint8 stateSeats;\r\n    }\r\n    \r\n\tmodifier onlyActiveElection() {\r\n        require(!electionEnded, \"The election has ended already\");\r\n        _;\r\n    }\r\n    \r\n\tfunction submitStateResult(StateResult calldata result) public onlyOwner onlyActiveElection {\r\n\t    require(result.stateSeats > 0, \"States must have at least 1 seat\");\r\n\t    require(result.votesBiden != result.votesTrump, \"There cannot be a tie\");\r\n\t\trequire(resultsSubmitted[result.name] != true, \"The result is already submitted for this state\");\r\n\t    uint8 winner;\r\n\t    if(result.votesBiden > result.votesTrump) {\r\n\t        winner = BIDEN;\r\n\t    } else {\r\n\t        winner = TRUMP;\r\n\t    }\r\n\t    \r\n\t    seats[winner] += result.stateSeats;\r\n\t    resultsSubmitted[result.name] = true;\r\n\t    emit LogStateResult(winner, result.stateSeats, result.name);\r\n\t}\r\n    \r\n    function currentLeader() public view returns(uint8) {\r\n\t    if(seats[BIDEN] > seats[TRUMP]) {\r\n\t        return BIDEN;\r\n\t    }\r\n\t    if(seats[TRUMP] > seats[BIDEN]) {\r\n\t        return TRUMP;\r\n\t    }\r\n\t    return 0;\r\n\t}\r\n    \r\n    function endElection() public onlyOwner onlyActiveElection {\r\n        electionEnded = true;\r\n        emit LogElectionEnded(currentLeader());\r\n    }\r\n    \r\n}",
  "sourcePath": "C:\\Users\\dimit\\Desktop\\training\\contracts\\USElection.sol",
  "compiler": {
    "name": "solc",
    "version": "0.7.5+commit.eb77ed08.Emscripten.clang",
    "optimizer": false,
    "runs": 200
  },
  "schemaVersion": "2.3.5",
  "updatedAt": "2021-06-14T16:40:55.310Z"
}